{
  "contractName": "EventTicket",
  "abi": [
    {
      "inputs": [
        {
          "internalType": "string",
          "name": "_eventName",
          "type": "string"
        },
        {
          "internalType": "string",
          "name": "_eventDate",
          "type": "string"
        },
        {
          "internalType": "uint256",
          "name": "_ticketPrice",
          "type": "uint256"
        },
        {
          "internalType": "uint256",
          "name": "_maxTickets",
          "type": "uint256"
        }
      ],
      "stateMutability": "nonpayable",
      "type": "constructor"
    },
    {
      "inputs": [
        {
          "internalType": "address",
          "name": "sender",
          "type": "address"
        },
        {
          "internalType": "uint256",
          "name": "tokenId",
          "type": "uint256"
        },
        {
          "internalType": "address",
          "name": "owner",
          "type": "address"
        }
      ],
      "name": "ERC721IncorrectOwner",
      "type": "error"
    },
    {
      "inputs": [
        {
          "internalType": "address",
          "name": "operator",
          "type": "address"
        },
        {
          "internalType": "uint256",
          "name": "tokenId",
          "type": "uint256"
        }
      ],
      "name": "ERC721InsufficientApproval",
      "type": "error"
    },
    {
      "inputs": [
        {
          "internalType": "address",
          "name": "approver",
          "type": "address"
        }
      ],
      "name": "ERC721InvalidApprover",
      "type": "error"
    },
    {
      "inputs": [
        {
          "internalType": "address",
          "name": "operator",
          "type": "address"
        }
      ],
      "name": "ERC721InvalidOperator",
      "type": "error"
    },
    {
      "inputs": [
        {
          "internalType": "address",
          "name": "owner",
          "type": "address"
        }
      ],
      "name": "ERC721InvalidOwner",
      "type": "error"
    },
    {
      "inputs": [
        {
          "internalType": "address",
          "name": "receiver",
          "type": "address"
        }
      ],
      "name": "ERC721InvalidReceiver",
      "type": "error"
    },
    {
      "inputs": [
        {
          "internalType": "address",
          "name": "sender",
          "type": "address"
        }
      ],
      "name": "ERC721InvalidSender",
      "type": "error"
    },
    {
      "inputs": [
        {
          "internalType": "uint256",
          "name": "tokenId",
          "type": "uint256"
        }
      ],
      "name": "ERC721NonexistentToken",
      "type": "error"
    },
    {
      "inputs": [
        {
          "internalType": "address",
          "name": "owner",
          "type": "address"
        }
      ],
      "name": "OwnableInvalidOwner",
      "type": "error"
    },
    {
      "inputs": [
        {
          "internalType": "address",
          "name": "account",
          "type": "address"
        }
      ],
      "name": "OwnableUnauthorizedAccount",
      "type": "error"
    },
    {
      "anonymous": false,
      "inputs": [
        {
          "indexed": true,
          "internalType": "address",
          "name": "owner",
          "type": "address"
        },
        {
          "indexed": true,
          "internalType": "address",
          "name": "approved",
          "type": "address"
        },
        {
          "indexed": true,
          "internalType": "uint256",
          "name": "tokenId",
          "type": "uint256"
        }
      ],
      "name": "Approval",
      "type": "event"
    },
    {
      "anonymous": false,
      "inputs": [
        {
          "indexed": true,
          "internalType": "address",
          "name": "owner",
          "type": "address"
        },
        {
          "indexed": true,
          "internalType": "address",
          "name": "operator",
          "type": "address"
        },
        {
          "indexed": false,
          "internalType": "bool",
          "name": "approved",
          "type": "bool"
        }
      ],
      "name": "ApprovalForAll",
      "type": "event"
    },
    {
      "anonymous": false,
      "inputs": [
        {
          "indexed": true,
          "internalType": "address",
          "name": "previousOwner",
          "type": "address"
        },
        {
          "indexed": true,
          "internalType": "address",
          "name": "newOwner",
          "type": "address"
        }
      ],
      "name": "OwnershipTransferred",
      "type": "event"
    },
    {
      "anonymous": false,
      "inputs": [
        {
          "indexed": true,
          "internalType": "address",
          "name": "buyer",
          "type": "address"
        },
        {
          "indexed": false,
          "internalType": "uint256",
          "name": "tokenId",
          "type": "uint256"
        },
        {
          "indexed": false,
          "internalType": "string",
          "name": "seatNumber",
          "type": "string"
        }
      ],
      "name": "TicketMinted",
      "type": "event"
    },
    {
      "anonymous": false,
      "inputs": [
        {
          "indexed": true,
          "internalType": "address",
          "name": "from",
          "type": "address"
        },
        {
          "indexed": true,
          "internalType": "address",
          "name": "to",
          "type": "address"
        },
        {
          "indexed": true,
          "internalType": "uint256",
          "name": "tokenId",
          "type": "uint256"
        }
      ],
      "name": "Transfer",
      "type": "event"
    },
    {
      "inputs": [
        {
          "internalType": "address",
          "name": "to",
          "type": "address"
        },
        {
          "internalType": "uint256",
          "name": "tokenId",
          "type": "uint256"
        }
      ],
      "name": "approve",
      "outputs": [],
      "stateMutability": "nonpayable",
      "type": "function"
    },
    {
      "inputs": [
        {
          "internalType": "address",
          "name": "owner",
          "type": "address"
        }
      ],
      "name": "balanceOf",
      "outputs": [
        {
          "internalType": "uint256",
          "name": "",
          "type": "uint256"
        }
      ],
      "stateMutability": "view",
      "type": "function"
    },
    {
      "inputs": [],
      "name": "eventDate",
      "outputs": [
        {
          "internalType": "string",
          "name": "",
          "type": "string"
        }
      ],
      "stateMutability": "view",
      "type": "function"
    },
    {
      "inputs": [],
      "name": "eventName",
      "outputs": [
        {
          "internalType": "string",
          "name": "",
          "type": "string"
        }
      ],
      "stateMutability": "view",
      "type": "function"
    },
    {
      "inputs": [
        {
          "internalType": "uint256",
          "name": "tokenId",
          "type": "uint256"
        }
      ],
      "name": "getApproved",
      "outputs": [
        {
          "internalType": "address",
          "name": "",
          "type": "address"
        }
      ],
      "stateMutability": "view",
      "type": "function"
    },
    {
      "inputs": [
        {
          "internalType": "address",
          "name": "owner",
          "type": "address"
        },
        {
          "internalType": "address",
          "name": "operator",
          "type": "address"
        }
      ],
      "name": "isApprovedForAll",
      "outputs": [
        {
          "internalType": "bool",
          "name": "",
          "type": "bool"
        }
      ],
      "stateMutability": "view",
      "type": "function"
    },
    {
      "inputs": [],
      "name": "maxTickets",
      "outputs": [
        {
          "internalType": "uint256",
          "name": "",
          "type": "uint256"
        }
      ],
      "stateMutability": "view",
      "type": "function"
    },
    {
      "inputs": [],
      "name": "name",
      "outputs": [
        {
          "internalType": "string",
          "name": "",
          "type": "string"
        }
      ],
      "stateMutability": "view",
      "type": "function"
    },
    {
      "inputs": [],
      "name": "owner",
      "outputs": [
        {
          "internalType": "address",
          "name": "",
          "type": "address"
        }
      ],
      "stateMutability": "view",
      "type": "function"
    },
    {
      "inputs": [
        {
          "internalType": "uint256",
          "name": "tokenId",
          "type": "uint256"
        }
      ],
      "name": "ownerOf",
      "outputs": [
        {
          "internalType": "address",
          "name": "",
          "type": "address"
        }
      ],
      "stateMutability": "view",
      "type": "function"
    },
    {
      "inputs": [],
      "name": "renounceOwnership",
      "outputs": [],
      "stateMutability": "nonpayable",
      "type": "function"
    },
    {
      "inputs": [
        {
          "internalType": "address",
          "name": "from",
          "type": "address"
        },
        {
          "internalType": "address",
          "name": "to",
          "type": "address"
        },
        {
          "internalType": "uint256",
          "name": "tokenId",
          "type": "uint256"
        }
      ],
      "name": "safeTransferFrom",
      "outputs": [],
      "stateMutability": "nonpayable",
      "type": "function"
    },
    {
      "inputs": [
        {
          "internalType": "address",
          "name": "from",
          "type": "address"
        },
        {
          "internalType": "address",
          "name": "to",
          "type": "address"
        },
        {
          "internalType": "uint256",
          "name": "tokenId",
          "type": "uint256"
        },
        {
          "internalType": "bytes",
          "name": "data",
          "type": "bytes"
        }
      ],
      "name": "safeTransferFrom",
      "outputs": [],
      "stateMutability": "nonpayable",
      "type": "function"
    },
    {
      "inputs": [
        {
          "internalType": "uint256",
          "name": "",
          "type": "uint256"
        }
      ],
      "name": "seatNumbers",
      "outputs": [
        {
          "internalType": "string",
          "name": "",
          "type": "string"
        }
      ],
      "stateMutability": "view",
      "type": "function"
    },
    {
      "inputs": [
        {
          "internalType": "address",
          "name": "operator",
          "type": "address"
        },
        {
          "internalType": "bool",
          "name": "approved",
          "type": "bool"
        }
      ],
      "name": "setApprovalForAll",
      "outputs": [],
      "stateMutability": "nonpayable",
      "type": "function"
    },
    {
      "inputs": [
        {
          "internalType": "bytes4",
          "name": "interfaceId",
          "type": "bytes4"
        }
      ],
      "name": "supportsInterface",
      "outputs": [
        {
          "internalType": "bool",
          "name": "",
          "type": "bool"
        }
      ],
      "stateMutability": "view",
      "type": "function"
    },
    {
      "inputs": [],
      "name": "symbol",
      "outputs": [
        {
          "internalType": "string",
          "name": "",
          "type": "string"
        }
      ],
      "stateMutability": "view",
      "type": "function"
    },
    {
      "inputs": [],
      "name": "ticketPrice",
      "outputs": [
        {
          "internalType": "uint256",
          "name": "",
          "type": "uint256"
        }
      ],
      "stateMutability": "view",
      "type": "function"
    },
    {
      "inputs": [
        {
          "internalType": "uint256",
          "name": "tokenId",
          "type": "uint256"
        }
      ],
      "name": "tokenURI",
      "outputs": [
        {
          "internalType": "string",
          "name": "",
          "type": "string"
        }
      ],
      "stateMutability": "view",
      "type": "function"
    },
    {
      "inputs": [
        {
          "internalType": "address",
          "name": "from",
          "type": "address"
        },
        {
          "internalType": "address",
          "name": "to",
          "type": "address"
        },
        {
          "internalType": "uint256",
          "name": "tokenId",
          "type": "uint256"
        }
      ],
      "name": "transferFrom",
      "outputs": [],
      "stateMutability": "nonpayable",
      "type": "function"
    },
    {
      "inputs": [
        {
          "internalType": "address",
          "name": "newOwner",
          "type": "address"
        }
      ],
      "name": "transferOwnership",
      "outputs": [],
      "stateMutability": "nonpayable",
      "type": "function"
    },
    {
      "inputs": [
        {
          "internalType": "address",
          "name": "_to",
          "type": "address"
        },
        {
          "internalType": "string",
          "name": "_seatNumber",
          "type": "string"
        }
      ],
      "name": "mintTicket",
      "outputs": [],
      "stateMutability": "payable",
      "type": "function"
    },
    {
      "inputs": [
        {
          "internalType": "address",
          "name": "_to",
          "type": "address"
        },
        {
          "internalType": "string",
          "name": "_seatNumber",
          "type": "string"
        }
      ],
      "name": "ownerMint",
      "outputs": [],
      "stateMutability": "nonpayable",
      "type": "function"
    },
    {
      "inputs": [
        {
          "internalType": "uint256",
          "name": "_tokenId",
          "type": "uint256"
        }
      ],
      "name": "getTicketInfo",
      "outputs": [
        {
          "internalType": "string",
          "name": "event_",
          "type": "string"
        },
        {
          "internalType": "string",
          "name": "date",
          "type": "string"
        },
        {
          "internalType": "string",
          "name": "seat",
          "type": "string"
        },
        {
          "internalType": "address",
          "name": "owner_",
          "type": "address"
        }
      ],
      "stateMutability": "view",
      "type": "function"
    },
    {
      "inputs": [],
      "name": "withdraw",
      "outputs": [],
      "stateMutability": "nonpayable",
      "type": "function"
    },
    {
      "inputs": [],
      "name": "totalSupply",
      "outputs": [
        {
          "internalType": "uint256",
          "name": "",
          "type": "uint256"
        }
      ],
      "stateMutability": "view",
      "type": "function"
    }
  ],
  "bytecode": "0x608060405234801562000010575f80fd5b50604051620037c0380380620037c08339818101604052810190620000369190620003d4565b33846040518060400160405280600381526020017f544b540000000000000000000000000000000000000000000000000000000000815250815f90816200007e9190620006af565b508060019081620000909190620006af565b5050505f73ffffffffffffffffffffffffffffffffffffffff168173ffffffffffffffffffffffffffffffffffffffff160362000106575f6040517f1e4fbdf7000000000000000000000000000000000000000000000000000000008152600401620000fd9190620007d6565b60405180910390fd5b62000117816200015460201b60201c565b508360089081620001299190620006af565b5082600990816200013b9190620006af565b5081600a8190555080600b8190555050505050620007f1565b5f60065f9054906101000a900473ffffffffffffffffffffffffffffffffffffffff1690508160065f6101000a81548173ffffffffffffffffffffffffffffffffffffffff021916908373ffffffffffffffffffffffffffffffffffffffff1602179055508173ffffffffffffffffffffffffffffffffffffffff168173ffffffffffffffffffffffffffffffffffffffff167f8be0079c531659141344cd1fd0a4f28419497f9722a3daafe3b4186f6b6457e060405160405180910390a35050565b5f604051905090565b5f80fd5b5f80fd5b5f80fd5b5f80fd5b5f601f19601f8301169050919050565b7f4e487b71000000000000000000000000000000000000000000000000000000005f52604160045260245ffd5b620002788262000230565b810181811067ffffffffffffffff821117156200029a576200029962000240565b5b80604052505050565b5f620002ae62000217565b9050620002bc82826200026d565b919050565b5f67ffffffffffffffff821115620002de57620002dd62000240565b5b620002e98262000230565b9050602081019050919050565b5f5b8381101562000315578082015181840152602081019050620002f8565b5f8484015250505050565b5f620003366200033084620002c1565b620002a3565b9050828152602081018484840111156200035557620003546200022c565b5b62000362848285620002f6565b509392505050565b5f82601f83011262000381576200038062000228565b5b81516200039384826020860162000320565b91505092915050565b5f819050919050565b620003b0816200039c565b8114620003bb575f80fd5b50565b5f81519050620003ce81620003a5565b92915050565b5f805f8060808587031215620003ef57620003ee62000220565b5b5f85015167ffffffffffffffff8111156200040f576200040e62000224565b5b6200041d878288016200036a565b945050602085015167ffffffffffffffff81111562000441576200044062000224565b5b6200044f878288016200036a565b93505060406200046287828801620003be565b92505060606200047587828801620003be565b91505092959194509250565b5f81519050919050565b7f4e487b71000000000000000000000000000000000000000000000000000000005f52602260045260245ffd5b5f6002820490506001821680620004d057607f821691505b602082108103620004e657620004e56200048b565b5b50919050565b5f819050815f5260205f209050919050565b5f6020601f8301049050919050565b5f82821b905092915050565b5f600883026200054a7fffffffffffffffffffffffffffffffffffffffffffffffffffffffffffffffff826200050d565b6200055686836200050d565b95508019841693508086168417925050509392505050565b5f819050919050565b5f62000597620005916200058b846200039c565b6200056e565b6200039c565b9050919050565b5f819050919050565b620005b28362000577565b620005ca620005c1826200059e565b84845462000519565b825550505050565b5f90565b620005e0620005d2565b620005ed818484620005a7565b505050565b5b818110156200061457620006085f82620005d6565b600181019050620005f3565b5050565b601f82111562000663576200062d81620004ec565b6200063884620004fe565b8101602085101562000648578190505b620006606200065785620004fe565b830182620005f2565b50505b505050565b5f82821c905092915050565b5f620006855f198460080262000668565b1980831691505092915050565b5f6200069f838362000674565b9150826002028217905092915050565b620006ba8262000481565b67ffffffffffffffff811115620006d657620006d562000240565b5b620006e28254620004b8565b620006ef82828562000618565b5f60209050601f83116001811462000725575f841562000710578287015190505b6200071c858262000692565b8655506200078b565b601f1984166200073586620004ec565b5f5b828110156200075e5784890151825560018201915060208501945060208101905062000737565b868310156200077e57848901516200077a601f89168262000674565b8355505b6001600288020188555050505b505050505050565b5f73ffffffffffffffffffffffffffffffffffffffff82169050919050565b5f620007be8262000793565b9050919050565b620007d081620007b2565b82525050565b5f602082019050620007eb5f830184620007c5565b92915050565b612fc180620007ff5f395ff3fe608060405260043610610180575f3560e01c806370a08231116100d0578063a22cb46511610089578063e985e9c511610063578063e985e9c514610538578063f2fde38b14610574578063f9896ce21461059c578063ff99a063146105d857610180565b8063a22cb465146104ac578063b88d4fde146104d4578063c87b56dd146104fc57610180565b806370a08231146103b2578063715018a6146103ee5780638043c9c0146104045780638da5cb5b1461042e57806395d89b41146104585780639b8947031461048257610180565b806323b872dd1161013d57806342842e0e1161011757806342842e0e146103085780634bfbe5df146103305780635388842c1461035a5780636352211e1461037657610180565b806323b872dd146102a25780633ccfd60b146102ca57806341d5b803146102e057610180565b806301ffc9a71461018457806306fdde03146101c0578063081812fc146101ea578063095ea7b3146102265780631209b1f61461024e57806318160ddd14610278575b5f80fd5b34801561018f575f80fd5b506101aa60048036038101906101a59190612221565b610617565b6040516101b79190612266565b60405180910390f35b3480156101cb575f80fd5b506101d46106f8565b6040516101e19190612309565b60405180910390f35b3480156101f5575f80fd5b50610210600480360381019061020b919061235c565b610787565b60405161021d91906123c6565b60405180910390f35b348015610231575f80fd5b5061024c60048036038101906102479190612409565b6107a2565b005b348015610259575f80fd5b506102626107b8565b60405161026f9190612456565b60405180910390f35b348015610283575f80fd5b5061028c6107be565b6040516102999190612456565b60405180910390f35b3480156102ad575f80fd5b506102c860048036038101906102c3919061246f565b6107c7565b005b3480156102d5575f80fd5b506102de6108c6565b005b3480156102eb575f80fd5b50610306600480360381019061030191906125eb565b610962565b005b348015610313575f80fd5b5061032e6004803603810190610329919061246f565b610a4b565b005b34801561033b575f80fd5b50610344610a6a565b6040516103519190612309565b60405180910390f35b610374600480360381019061036f91906125eb565b610af6565b005b348015610381575f80fd5b5061039c6004803603810190610397919061235c565b610c78565b6040516103a991906123c6565b60405180910390f35b3480156103bd575f80fd5b506103d860048036038101906103d39190612645565b610c89565b6040516103e59190612456565b60405180910390f35b3480156103f9575f80fd5b50610402610d3f565b005b34801561040f575f80fd5b50610418610d52565b6040516104259190612309565b60405180910390f35b348015610439575f80fd5b50610442610dde565b60405161044f91906123c6565b60405180910390f35b348015610463575f80fd5b5061046c610e06565b6040516104799190612309565b60405180910390f35b34801561048d575f80fd5b50610496610e96565b6040516104a39190612456565b60405180910390f35b3480156104b7575f80fd5b506104d260048036038101906104cd919061269a565b610e9c565b005b3480156104df575f80fd5b506104fa60048036038101906104f59190612776565b610eb2565b005b348015610507575f80fd5b50610522600480360381019061051d919061235c565b610ed7565b60405161052f9190612309565b60405180910390f35b348015610543575f80fd5b5061055e600480360381019061055991906127f6565b610f3d565b60405161056b9190612266565b60405180910390f35b34801561057f575f80fd5b5061059a60048036038101906105959190612645565b610fcb565b005b3480156105a7575f80fd5b506105c260048036038101906105bd919061235c565b61104f565b6040516105cf9190612309565b60405180910390f35b3480156105e3575f80fd5b506105fe60048036038101906105f9919061235c565b6110ea565b60405161060e9493929190612834565b60405180910390f35b5f7f80ac58cd000000000000000000000000000000000000000000000000000000007bffffffffffffffffffffffffffffffffffffffffffffffffffffffff1916827bffffffffffffffffffffffffffffffffffffffffffffffffffffffff191614806106e157507f5b5e139f000000000000000000000000000000000000000000000000000000007bffffffffffffffffffffffffffffffffffffffffffffffffffffffff1916827bffffffffffffffffffffffffffffffffffffffffffffffffffffffff1916145b806106f157506106f082611331565b5b9050919050565b60605f8054610706906128b9565b80601f0160208091040260200160405190810160405280929190818152602001828054610732906128b9565b801561077d5780601f106107545761010080835404028352916020019161077d565b820191905f5260205f20905b81548152906001019060200180831161076057829003601f168201915b5050505050905090565b5f6107918261139a565b5061079b82611420565b9050919050565b6107b482826107af611459565b611460565b5050565b600a5481565b5f600754905090565b5f73ffffffffffffffffffffffffffffffffffffffff168273ffffffffffffffffffffffffffffffffffffffff1603610837575f6040517f64a0ae9200000000000000000000000000000000000000000000000000000000815260040161082e91906123c6565b60405180910390fd5b5f61084a8383610845611459565b611472565b90508373ffffffffffffffffffffffffffffffffffffffff168173ffffffffffffffffffffffffffffffffffffffff16146108c0578382826040517f64283d7b0000000000000000000000000000000000000000000000000000000081526004016108b7939291906128e9565b60405180910390fd5b50505050565b6108ce61167d565b5f4790505f8111610914576040517f08c379a000000000000000000000000000000000000000000000000000000000815260040161090b90612968565b60405180910390fd5b61091c610dde565b73ffffffffffffffffffffffffffffffffffffffff166108fc8290811502906040515f60405180830381858888f1935050505015801561095e573d5f803e3d5ffd5b5050565b61096a61167d565b600b54600754106109b0576040517f08c379a00000000000000000000000000000000000000000000000000000000081526004016109a7906129d0565b60405180910390fd5b5f600754905060075f8154809291906109c890612a1b565b91905055506109d78382611704565b81600c5f8381526020019081526020015f2090816109f59190612bff565b508273ffffffffffffffffffffffffffffffffffffffff167ff16f1e8b680ea7f1e8a1f849eb82762cba60ddcef854d36909e3173483281c8c8284604051610a3e929190612cce565b60405180910390a2505050565b610a6583838360405180602001604052805f815250610eb2565b505050565b60098054610a77906128b9565b80601f0160208091040260200160405190810160405280929190818152602001828054610aa3906128b9565b8015610aee5780601f10610ac557610100808354040283529160200191610aee565b820191905f5260205f20905b815481529060010190602001808311610ad157829003601f168201915b505050505081565b600b5460075410610b3c576040517f08c379a0000000000000000000000000000000000000000000000000000000008152600401610b33906129d0565b60405180910390fd5b600a54341015610b81576040517f08c379a0000000000000000000000000000000000000000000000000000000008152600401610b7890612d46565b60405180910390fd5b5f600754905060075f815480929190610b9990612a1b565b9190505550610ba88382611704565b81600c5f8381526020019081526020015f209081610bc69190612bff565b508273ffffffffffffffffffffffffffffffffffffffff167ff16f1e8b680ea7f1e8a1f849eb82762cba60ddcef854d36909e3173483281c8c8284604051610c0f929190612cce565b60405180910390a2600a54341115610c73573373ffffffffffffffffffffffffffffffffffffffff166108fc600a5434610c499190612d64565b90811502906040515f60405180830381858888f19350505050158015610c71573d5f803e3d5ffd5b505b505050565b5f610c828261139a565b9050919050565b5f8073ffffffffffffffffffffffffffffffffffffffff168273ffffffffffffffffffffffffffffffffffffffff1603610cfa575f6040517f89c62b64000000000000000000000000000000000000000000000000000000008152600401610cf191906123c6565b60405180910390fd5b60035f8373ffffffffffffffffffffffffffffffffffffffff1673ffffffffffffffffffffffffffffffffffffffff1681526020019081526020015f20549050919050565b610d4761167d565b610d505f611721565b565b60088054610d5f906128b9565b80601f0160208091040260200160405190810160405280929190818152602001828054610d8b906128b9565b8015610dd65780601f10610dad57610100808354040283529160200191610dd6565b820191905f5260205f20905b815481529060010190602001808311610db957829003601f168201915b505050505081565b5f60065f9054906101000a900473ffffffffffffffffffffffffffffffffffffffff16905090565b606060018054610e15906128b9565b80601f0160208091040260200160405190810160405280929190818152602001828054610e41906128b9565b8015610e8c5780601f10610e6357610100808354040283529160200191610e8c565b820191905f5260205f20905b815481529060010190602001808311610e6f57829003601f168201915b5050505050905090565b600b5481565b610eae610ea7611459565b83836117e4565b5050565b610ebd8484846107c7565b610ed1610ec8611459565b8585858561194d565b50505050565b6060610ee28261139a565b505f610eec611af9565b90505f815111610f0a5760405180602001604052805f815250610f35565b80610f1484611b0f565b604051602001610f25929190612dd1565b6040516020818303038152906040525b915050919050565b5f60055f8473ffffffffffffffffffffffffffffffffffffffff1673ffffffffffffffffffffffffffffffffffffffff1681526020019081526020015f205f8373ffffffffffffffffffffffffffffffffffffffff1673ffffffffffffffffffffffffffffffffffffffff1681526020019081526020015f205f9054906101000a900460ff16905092915050565b610fd361167d565b5f73ffffffffffffffffffffffffffffffffffffffff168173ffffffffffffffffffffffffffffffffffffffff1603611043575f6040517f1e4fbdf700000000000000000000000000000000000000000000000000000000815260040161103a91906123c6565b60405180910390fd5b61104c81611721565b50565b600c602052805f5260405f205f91509050805461106b906128b9565b80601f0160208091040260200160405190810160405280929190818152602001828054611097906128b9565b80156110e25780601f106110b9576101008083540402835291602001916110e2565b820191905f5260205f20905b8154815290600101906020018083116110c557829003601f168201915b505050505081565b60608060605f8073ffffffffffffffffffffffffffffffffffffffff1661111086611bd9565b73ffffffffffffffffffffffffffffffffffffffff1603611166576040517f08c379a000000000000000000000000000000000000000000000000000000000815260040161115d90612e3e565b60405180910390fd5b60086009600c5f8881526020019081526020015f2061118488610c78565b838054611190906128b9565b80601f01602080910402602001604051908101604052809291908181526020018280546111bc906128b9565b80156112075780601f106111de57610100808354040283529160200191611207565b820191905f5260205f20905b8154815290600101906020018083116111ea57829003601f168201915b5050505050935082805461121a906128b9565b80601f0160208091040260200160405190810160405280929190818152602001828054611246906128b9565b80156112915780601f1061126857610100808354040283529160200191611291565b820191905f5260205f20905b81548152906001019060200180831161127457829003601f168201915b505050505092508180546112a4906128b9565b80601f01602080910402602001604051908101604052809291908181526020018280546112d0906128b9565b801561131b5780601f106112f25761010080835404028352916020019161131b565b820191905f5260205f20905b8154815290600101906020018083116112fe57829003601f168201915b5050505050915093509350935093509193509193565b5f7f01ffc9a7000000000000000000000000000000000000000000000000000000007bffffffffffffffffffffffffffffffffffffffffffffffffffffffff1916827bffffffffffffffffffffffffffffffffffffffffffffffffffffffff1916149050919050565b5f806113a583611bd9565b90505f73ffffffffffffffffffffffffffffffffffffffff168173ffffffffffffffffffffffffffffffffffffffff160361141757826040517f7e27328900000000000000000000000000000000000000000000000000000000815260040161140e9190612456565b60405180910390fd5b80915050919050565b5f60045f8381526020019081526020015f205f9054906101000a900473ffffffffffffffffffffffffffffffffffffffff169050919050565b5f33905090565b61146d8383836001611c12565b505050565b5f8061147d84611bd9565b90505f73ffffffffffffffffffffffffffffffffffffffff168373ffffffffffffffffffffffffffffffffffffffff16146114be576114bd818486611dd1565b5b5f73ffffffffffffffffffffffffffffffffffffffff168173ffffffffffffffffffffffffffffffffffffffff1614611549576114fd5f855f80611c12565b600160035f8373ffffffffffffffffffffffffffffffffffffffff1673ffffffffffffffffffffffffffffffffffffffff1681526020019081526020015f205f82825403925050819055505b5f73ffffffffffffffffffffffffffffffffffffffff168573ffffffffffffffffffffffffffffffffffffffff16146115c857600160035f8773ffffffffffffffffffffffffffffffffffffffff1673ffffffffffffffffffffffffffffffffffffffff1681526020019081526020015f205f82825401925050819055505b8460025f8681526020019081526020015f205f6101000a81548173ffffffffffffffffffffffffffffffffffffffff021916908373ffffffffffffffffffffffffffffffffffffffff160217905550838573ffffffffffffffffffffffffffffffffffffffff168273ffffffffffffffffffffffffffffffffffffffff167fddf252ad1be2c89b69c2b068fc378daa952ba7f163c4a11628f55a4df523b3ef60405160405180910390a4809150509392505050565b611685611459565b73ffffffffffffffffffffffffffffffffffffffff166116a3610dde565b73ffffffffffffffffffffffffffffffffffffffff1614611702576116c6611459565b6040517f118cdaa70000000000000000000000000000000000000000000000000000000081526004016116f991906123c6565b60405180910390fd5b565b61171d828260405180602001604052805f815250611e94565b5050565b5f60065f9054906101000a900473ffffffffffffffffffffffffffffffffffffffff1690508160065f6101000a81548173ffffffffffffffffffffffffffffffffffffffff021916908373ffffffffffffffffffffffffffffffffffffffff1602179055508173ffffffffffffffffffffffffffffffffffffffff168173ffffffffffffffffffffffffffffffffffffffff167f8be0079c531659141344cd1fd0a4f28419497f9722a3daafe3b4186f6b6457e060405160405180910390a35050565b5f73ffffffffffffffffffffffffffffffffffffffff168273ffffffffffffffffffffffffffffffffffffffff160361185457816040517f5b08ba1800000000000000000000000000000000000000000000000000000000815260040161184b91906123c6565b60405180910390fd5b8060055f8573ffffffffffffffffffffffffffffffffffffffff1673ffffffffffffffffffffffffffffffffffffffff1681526020019081526020015f205f8473ffffffffffffffffffffffffffffffffffffffff1673ffffffffffffffffffffffffffffffffffffffff1681526020019081526020015f205f6101000a81548160ff0219169083151502179055508173ffffffffffffffffffffffffffffffffffffffff168373ffffffffffffffffffffffffffffffffffffffff167f17307eab39ab6107e8899845ad3d59bd9653f200f220920489ca2b5937696c31836040516119409190612266565b60405180910390a3505050565b5f8373ffffffffffffffffffffffffffffffffffffffff163b1115611af2578273ffffffffffffffffffffffffffffffffffffffff1663150b7a02868685856040518563ffffffff1660e01b81526004016119ab9493929190612eae565b6020604051808303815f875af19250505080156119e657506040513d601f19601f820116820180604052508101906119e39190612f0c565b60015b611a67573d805f8114611a14576040519150601f19603f3d011682016040523d82523d5f602084013e611a19565b606091505b505f815103611a5f57836040517f64a0ae92000000000000000000000000000000000000000000000000000000008152600401611a5691906123c6565b60405180910390fd5b805160208201fd5b63150b7a0260e01b7bffffffffffffffffffffffffffffffffffffffffffffffffffffffff1916817bffffffffffffffffffffffffffffffffffffffffffffffffffffffff191614611af057836040517f64a0ae92000000000000000000000000000000000000000000000000000000008152600401611ae791906123c6565b60405180910390fd5b505b5050505050565b606060405180602001604052805f815250905090565b60605f6001611b1d84611eb7565b0190505f8167ffffffffffffffff811115611b3b57611b3a6124c7565b5b6040519080825280601f01601f191660200182016040528015611b6d5781602001600182028036833780820191505090505b5090505f82602083010190505b600115611bce578080600190039150507f3031323334353637383961626364656600000000000000000000000000000000600a86061a8153600a8581611bc357611bc2612f37565b5b0494505f8503611b7a575b819350505050919050565b5f60025f8381526020019081526020015f205f9054906101000a900473ffffffffffffffffffffffffffffffffffffffff169050919050565b8080611c4a57505f73ffffffffffffffffffffffffffffffffffffffff168273ffffffffffffffffffffffffffffffffffffffff1614155b15611d7c575f611c598461139a565b90505f73ffffffffffffffffffffffffffffffffffffffff168373ffffffffffffffffffffffffffffffffffffffff1614158015611cc357508273ffffffffffffffffffffffffffffffffffffffff168173ffffffffffffffffffffffffffffffffffffffff1614155b8015611cd65750611cd48184610f3d565b155b15611d1857826040517fa9fbf51f000000000000000000000000000000000000000000000000000000008152600401611d0f91906123c6565b60405180910390fd5b8115611d7a57838573ffffffffffffffffffffffffffffffffffffffff168273ffffffffffffffffffffffffffffffffffffffff167f8c5be1e5ebec7d5bd14f71427d1e84f3dd0314c0f7b2291e5b200ac8c7c3b92560405160405180910390a45b505b8360045f8581526020019081526020015f205f6101000a81548173ffffffffffffffffffffffffffffffffffffffff021916908373ffffffffffffffffffffffffffffffffffffffff16021790555050505050565b611ddc838383612008565b611e8f575f73ffffffffffffffffffffffffffffffffffffffff168373ffffffffffffffffffffffffffffffffffffffff1603611e5057806040517f7e273289000000000000000000000000000000000000000000000000000000008152600401611e479190612456565b60405180910390fd5b81816040517f177e802f000000000000000000000000000000000000000000000000000000008152600401611e86929190612f64565b60405180910390fd5b505050565b611e9e83836120c8565b611eb2611ea9611459565b5f85858561194d565b505050565b5f805f90507a184f03e93ff9f4daa797ed6e38ed64bf6a1f0100000000000000008310611f13577a184f03e93ff9f4daa797ed6e38ed64bf6a1f0100000000000000008381611f0957611f08612f37565b5b0492506040810190505b6d04ee2d6d415b85acef81000000008310611f50576d04ee2d6d415b85acef81000000008381611f4657611f45612f37565b5b0492506020810190505b662386f26fc100008310611f7f57662386f26fc100008381611f7557611f74612f37565b5b0492506010810190505b6305f5e1008310611fa8576305f5e1008381611f9e57611f9d612f37565b5b0492506008810190505b6127108310611fcd576127108381611fc357611fc2612f37565b5b0492506004810190505b60648310611ff05760648381611fe657611fe5612f37565b5b0492506002810190505b600a8310611fff576001810190505b80915050919050565b5f8073ffffffffffffffffffffffffffffffffffffffff168373ffffffffffffffffffffffffffffffffffffffff16141580156120bf57508273ffffffffffffffffffffffffffffffffffffffff168473ffffffffffffffffffffffffffffffffffffffff161480612080575061207f8484610f3d565b5b806120be57508273ffffffffffffffffffffffffffffffffffffffff166120a683611420565b73ffffffffffffffffffffffffffffffffffffffff16145b5b90509392505050565b5f73ffffffffffffffffffffffffffffffffffffffff168273ffffffffffffffffffffffffffffffffffffffff1603612138575f6040517f64a0ae9200000000000000000000000000000000000000000000000000000000815260040161212f91906123c6565b60405180910390fd5b5f61214483835f611472565b90505f73ffffffffffffffffffffffffffffffffffffffff168173ffffffffffffffffffffffffffffffffffffffff16146121b6575f6040517f73c6ac6e0000000000000000000000000000000000000000000000000000000081526004016121ad91906123c6565b60405180910390fd5b505050565b5f604051905090565b5f80fd5b5f80fd5b5f7fffffffff0000000000000000000000000000000000000000000000000000000082169050919050565b612200816121cc565b811461220a575f80fd5b50565b5f8135905061221b816121f7565b92915050565b5f60208284031215612236576122356121c4565b5b5f6122438482850161220d565b91505092915050565b5f8115159050919050565b6122608161224c565b82525050565b5f6020820190506122795f830184612257565b92915050565b5f81519050919050565b5f82825260208201905092915050565b5f5b838110156122b657808201518184015260208101905061229b565b5f8484015250505050565b5f601f19601f8301169050919050565b5f6122db8261227f565b6122e58185612289565b93506122f5818560208601612299565b6122fe816122c1565b840191505092915050565b5f6020820190508181035f83015261232181846122d1565b905092915050565b5f819050919050565b61233b81612329565b8114612345575f80fd5b50565b5f8135905061235681612332565b92915050565b5f60208284031215612371576123706121c4565b5b5f61237e84828501612348565b91505092915050565b5f73ffffffffffffffffffffffffffffffffffffffff82169050919050565b5f6123b082612387565b9050919050565b6123c0816123a6565b82525050565b5f6020820190506123d95f8301846123b7565b92915050565b6123e8816123a6565b81146123f2575f80fd5b50565b5f81359050612403816123df565b92915050565b5f806040838503121561241f5761241e6121c4565b5b5f61242c858286016123f5565b925050602061243d85828601612348565b9150509250929050565b61245081612329565b82525050565b5f6020820190506124695f830184612447565b92915050565b5f805f60608486031215612486576124856121c4565b5b5f612493868287016123f5565b93505060206124a4868287016123f5565b92505060406124b586828701612348565b9150509250925092565b5f80fd5b5f80fd5b7f4e487b71000000000000000000000000000000000000000000000000000000005f52604160045260245ffd5b6124fd826122c1565b810181811067ffffffffffffffff8211171561251c5761251b6124c7565b5b80604052505050565b5f61252e6121bb565b905061253a82826124f4565b919050565b5f67ffffffffffffffff821115612559576125586124c7565b5b612562826122c1565b9050602081019050919050565b828183375f83830152505050565b5f61258f61258a8461253f565b612525565b9050828152602081018484840111156125ab576125aa6124c3565b5b6125b684828561256f565b509392505050565b5f82601f8301126125d2576125d16124bf565b5b81356125e284826020860161257d565b91505092915050565b5f8060408385031215612601576126006121c4565b5b5f61260e858286016123f5565b925050602083013567ffffffffffffffff81111561262f5761262e6121c8565b5b61263b858286016125be565b9150509250929050565b5f6020828403121561265a576126596121c4565b5b5f612667848285016123f5565b91505092915050565b6126798161224c565b8114612683575f80fd5b50565b5f8135905061269481612670565b92915050565b5f80604083850312156126b0576126af6121c4565b5b5f6126bd858286016123f5565b92505060206126ce85828601612686565b9150509250929050565b5f67ffffffffffffffff8211156126f2576126f16124c7565b5b6126fb826122c1565b9050602081019050919050565b5f61271a612715846126d8565b612525565b905082815260208101848484011115612736576127356124c3565b5b61274184828561256f565b509392505050565b5f82601f83011261275d5761275c6124bf565b5b813561276d848260208601612708565b91505092915050565b5f805f806080858703121561278e5761278d6121c4565b5b5f61279b878288016123f5565b94505060206127ac878288016123f5565b93505060406127bd87828801612348565b925050606085013567ffffffffffffffff8111156127de576127dd6121c8565b5b6127ea87828801612749565b91505092959194509250565b5f806040838503121561280c5761280b6121c4565b5b5f612819858286016123f5565b925050602061282a858286016123f5565b9150509250929050565b5f6080820190508181035f83015261284c81876122d1565b9050818103602083015261286081866122d1565b9050818103604083015261287481856122d1565b905061288360608301846123b7565b95945050505050565b7f4e487b71000000000000000000000000000000000000000000000000000000005f52602260045260245ffd5b5f60028204905060018216806128d057607f821691505b6020821081036128e3576128e261288c565b5b50919050565b5f6060820190506128fc5f8301866123b7565b6129096020830185612447565b61291660408301846123b7565b949350505050565b7f4e6f2066756e647320746f2077697468647261770000000000000000000000005f82015250565b5f612952601483612289565b915061295d8261291e565b602082019050919050565b5f6020820190508181035f83015261297f81612946565b9050919050565b7f416c6c207469636b65747320736f6c64000000000000000000000000000000005f82015250565b5f6129ba601083612289565b91506129c582612986565b602082019050919050565b5f6020820190508181035f8301526129e7816129ae565b9050919050565b7f4e487b71000000000000000000000000000000000000000000000000000000005f52601160045260245ffd5b5f612a2582612329565b91507fffffffffffffffffffffffffffffffffffffffffffffffffffffffffffffffff8203612a5757612a566129ee565b5b600182019050919050565b5f819050815f5260205f209050919050565b5f6020601f8301049050919050565b5f82821b905092915050565b5f60088302612abe7fffffffffffffffffffffffffffffffffffffffffffffffffffffffffffffffff82612a83565b612ac88683612a83565b95508019841693508086168417925050509392505050565b5f819050919050565b5f612b03612afe612af984612329565b612ae0565b612329565b9050919050565b5f819050919050565b612b1c83612ae9565b612b30612b2882612b0a565b848454612a8f565b825550505050565b5f90565b612b44612b38565b612b4f818484612b13565b505050565b5b81811015612b7257612b675f82612b3c565b600181019050612b55565b5050565b601f821115612bb757612b8881612a62565b612b9184612a74565b81016020851015612ba0578190505b612bb4612bac85612a74565b830182612b54565b50505b505050565b5f82821c905092915050565b5f612bd75f1984600802612bbc565b1980831691505092915050565b5f612bef8383612bc8565b9150826002028217905092915050565b612c088261227f565b67ffffffffffffffff811115612c2157612c206124c7565b5b612c2b82546128b9565b612c36828285612b76565b5f60209050601f831160018114612c67575f8415612c55578287015190505b612c5f8582612be4565b865550612cc6565b601f198416612c7586612a62565b5f5b82811015612c9c57848901518255600182019150602085019450602081019050612c77565b86831015612cb95784890151612cb5601f891682612bc8565b8355505b6001600288020188555050505b505050505050565b5f604082019050612ce15f830185612447565b8181036020830152612cf381846122d1565b90509392505050565b7f496e73756666696369656e74207061796d656e740000000000000000000000005f82015250565b5f612d30601483612289565b9150612d3b82612cfc565b602082019050919050565b5f6020820190508181035f830152612d5d81612d24565b9050919050565b5f612d6e82612329565b9150612d7983612329565b9250828203905081811115612d9157612d906129ee565b5b92915050565b5f81905092915050565b5f612dab8261227f565b612db58185612d97565b9350612dc5818560208601612299565b80840191505092915050565b5f612ddc8285612da1565b9150612de88284612da1565b91508190509392505050565b7f546f6b656e20646f6573206e6f742065786973740000000000000000000000005f82015250565b5f612e28601483612289565b9150612e3382612df4565b602082019050919050565b5f6020820190508181035f830152612e5581612e1c565b9050919050565b5f81519050919050565b5f82825260208201905092915050565b5f612e8082612e5c565b612e8a8185612e66565b9350612e9a818560208601612299565b612ea3816122c1565b840191505092915050565b5f608082019050612ec15f8301876123b7565b612ece60208301866123b7565b612edb6040830185612447565b8181036060830152612eed8184612e76565b905095945050505050565b5f81519050612f06816121f7565b92915050565b5f60208284031215612f2157612f206121c4565b5b5f612f2e84828501612ef8565b91505092915050565b7f4e487b71000000000000000000000000000000000000000000000000000000005f52601260045260245ffd5b5f604082019050612f775f8301856123b7565b612f846020830184612447565b939250505056fea2646970667358221220af5cd446fd77229834525a224d4d0d0d9ac10c1f84238e3965b52a84de28aac764736f6c63430008150033",
  "immutableReferences": {},
  "source": "// SPDX-License-Identifier: MIT\r\npragma solidity ^0.8.21;\r\n\r\nimport \"@openzeppelin/contracts/token/ERC721/ERC721.sol\";\r\nimport \"@openzeppelin/contracts/access/Ownable.sol\";\r\n\r\ncontract EventTicket is ERC721, Ownable {\r\n    uint256 private _tokenIdCounter;\r\n\r\n    string public eventName;\r\n    string public eventDate;\r\n    uint256 public ticketPrice;\r\n    uint256 public maxTickets;\r\n\r\n    mapping(uint256 => string) public seatNumbers;\r\n\r\n    event TicketMinted(address indexed buyer, uint256 tokenId, string seatNumber);\r\n\r\n    constructor(\r\n        string memory _eventName,\r\n        string memory _eventDate,\r\n        uint256 _ticketPrice,\r\n        uint256 _maxTickets\r\n    ) ERC721(_eventName, \"TKT\") Ownable(msg.sender) {\r\n        eventName = _eventName;\r\n        eventDate = _eventDate;\r\n        ticketPrice = _ticketPrice;\r\n        maxTickets = _maxTickets;\r\n    }\r\n\r\n    function mintTicket(address _to, string memory _seatNumber) external payable {\r\n        require(_tokenIdCounter < maxTickets, \"All tickets sold\");\r\n        require(msg.value >= ticketPrice, \"Insufficient payment\");\r\n\r\n        uint256 tokenId = _tokenIdCounter;\r\n        _tokenIdCounter++;\r\n\r\n        _safeMint(_to, tokenId);\r\n        seatNumbers[tokenId] = _seatNumber;\r\n\r\n        emit TicketMinted(_to, tokenId, _seatNumber);\r\n\r\n        if (msg.value > ticketPrice) {\r\n            payable(msg.sender).transfer(msg.value - ticketPrice);\r\n        }\r\n    }\r\n\r\n    function ownerMint(address _to, string memory _seatNumber) external onlyOwner {\r\n        require(_tokenIdCounter < maxTickets, \"All tickets sold\");\r\n\r\n        uint256 tokenId = _tokenIdCounter;\r\n        _tokenIdCounter++;\r\n\r\n        _safeMint(_to, tokenId);\r\n        seatNumbers[tokenId] = _seatNumber;\r\n\r\n        emit TicketMinted(_to, tokenId, _seatNumber);\r\n    }\r\n\r\n    function getTicketInfo(uint256 _tokenId) external view returns (\r\n        string memory event_,\r\n        string memory date,\r\n        string memory seat,\r\n        address owner_\r\n    ) {\r\n        require(_ownerOf(_tokenId) != address(0), \"Token does not exist\");\r\n        return (eventName, eventDate, seatNumbers[_tokenId], ownerOf(_tokenId));\r\n    }\r\n\r\n    function withdraw() external onlyOwner {\r\n        uint256 balance = address(this).balance;\r\n        require(balance > 0, \"No funds to withdraw\");\r\n        payable(owner()).transfer(balance);\r\n    }\r\n\r\n    function totalSupply() external view returns (uint256) {\r\n        return _tokenIdCounter;\r\n    }\r\n}",
  "sourcePath": "C:\\Users\\astri\\Desktop\\blockchain-solidity\\contracts\\EventTicket.sol",
  "compiler": {
    "name": "solc",
    "version": "0.8.21+commit.d9974bed.Emscripten.clang"
  },
  "schemaVersion": "3.4.16",
  "updatedAt": "2025-12-17T19:08:46.381Z",
  "devdoc": {
    "errors": {
      "ERC721IncorrectOwner(address,uint256,address)": [
        {
          "details": "Indicates an error related to the ownership over a particular token. Used in transfers.",
          "params": {
            "owner": "Address of the current owner of a token.",
            "sender": "Address whose tokens are being transferred.",
            "tokenId": "Identifier number of a token."
          }
        }
      ],
      "ERC721InsufficientApproval(address,uint256)": [
        {
          "details": "Indicates a failure with the `operator`s approval. Used in transfers.",
          "params": {
            "operator": "Address that may be allowed to operate on tokens without being their owner.",
            "tokenId": "Identifier number of a token."
          }
        }
      ],
      "ERC721InvalidApprover(address)": [
        {
          "details": "Indicates a failure with the `approver` of a token to be approved. Used in approvals.",
          "params": {
            "approver": "Address initiating an approval operation."
          }
        }
      ],
      "ERC721InvalidOperator(address)": [
        {
          "details": "Indicates a failure with the `operator` to be approved. Used in approvals.",
          "params": {
            "operator": "Address that may be allowed to operate on tokens without being their owner."
          }
        }
      ],
      "ERC721InvalidOwner(address)": [
        {
          "details": "Indicates that an address can't be an owner. For example, `address(0)` is a forbidden owner in ERC-20. Used in balance queries.",
          "params": {
            "owner": "Address of the current owner of a token."
          }
        }
      ],
      "ERC721InvalidReceiver(address)": [
        {
          "details": "Indicates a failure with the token `receiver`. Used in transfers.",
          "params": {
            "receiver": "Address to which tokens are being transferred."
          }
        }
      ],
      "ERC721InvalidSender(address)": [
        {
          "details": "Indicates a failure with the token `sender`. Used in transfers.",
          "params": {
            "sender": "Address whose tokens are being transferred."
          }
        }
      ],
      "ERC721NonexistentToken(uint256)": [
        {
          "details": "Indicates a `tokenId` whose `owner` is the zero address.",
          "params": {
            "tokenId": "Identifier number of a token."
          }
        }
      ],
      "OwnableInvalidOwner(address)": [
        {
          "details": "The owner is not a valid owner account. (eg. `address(0)`)"
        }
      ],
      "OwnableUnauthorizedAccount(address)": [
        {
          "details": "The caller account is not authorized to perform an operation."
        }
      ]
    },
    "events": {
      "Approval(address,address,uint256)": {
        "details": "Emitted when `owner` enables `approved` to manage the `tokenId` token."
      },
      "ApprovalForAll(address,address,bool)": {
        "details": "Emitted when `owner` enables or disables (`approved`) `operator` to manage all of its assets."
      },
      "Transfer(address,address,uint256)": {
        "details": "Emitted when `tokenId` token is transferred from `from` to `to`."
      }
    },
    "kind": "dev",
    "methods": {
      "approve(address,uint256)": {
        "details": "Gives permission to `to` to transfer `tokenId` token to another account. The approval is cleared when the token is transferred. Only a single account can be approved at a time, so approving the zero address clears previous approvals. Requirements: - The caller must own the token or be an approved operator. - `tokenId` must exist. Emits an {Approval} event."
      },
      "balanceOf(address)": {
        "details": "Returns the number of tokens in ``owner``'s account."
      },
      "getApproved(uint256)": {
        "details": "Returns the account approved for `tokenId` token. Requirements: - `tokenId` must exist."
      },
      "isApprovedForAll(address,address)": {
        "details": "Returns if the `operator` is allowed to manage all of the assets of `owner`. See {setApprovalForAll}"
      },
      "name()": {
        "details": "Returns the token collection name."
      },
      "owner()": {
        "details": "Returns the address of the current owner."
      },
      "ownerOf(uint256)": {
        "details": "Returns the owner of the `tokenId` token. Requirements: - `tokenId` must exist."
      },
      "renounceOwnership()": {
        "details": "Leaves the contract without owner. It will not be possible to call `onlyOwner` functions. Can only be called by the current owner. NOTE: Renouncing ownership will leave the contract without an owner, thereby disabling any functionality that is only available to the owner."
      },
      "safeTransferFrom(address,address,uint256)": {
        "details": "Safely transfers `tokenId` token from `from` to `to`, checking first that contract recipients are aware of the ERC-721 protocol to prevent tokens from being forever locked. Requirements: - `from` cannot be the zero address. - `to` cannot be the zero address. - `tokenId` token must exist and be owned by `from`. - If the caller is not `from`, it must have been allowed to move this token by either {approve} or   {setApprovalForAll}. - If `to` refers to a smart contract, it must implement {IERC721Receiver-onERC721Received}, which is called upon   a safe transfer. Emits a {Transfer} event."
      },
      "safeTransferFrom(address,address,uint256,bytes)": {
        "details": "Safely transfers `tokenId` token from `from` to `to`. Requirements: - `from` cannot be the zero address. - `to` cannot be the zero address. - `tokenId` token must exist and be owned by `from`. - If the caller is not `from`, it must be approved to move this token by either {approve} or {setApprovalForAll}. - If `to` refers to a smart contract, it must implement {IERC721Receiver-onERC721Received}, which is called upon   a safe transfer. Emits a {Transfer} event."
      },
      "setApprovalForAll(address,bool)": {
        "details": "Approve or remove `operator` as an operator for the caller. Operators can call {transferFrom} or {safeTransferFrom} for any token owned by the caller. Requirements: - The `operator` cannot be the address zero. Emits an {ApprovalForAll} event."
      },
      "supportsInterface(bytes4)": {
        "details": "Returns true if this contract implements the interface defined by `interfaceId`. See the corresponding https://eips.ethereum.org/EIPS/eip-165#how-interfaces-are-identified[ERC section] to learn more about how these ids are created. This function call must use less than 30 000 gas."
      },
      "symbol()": {
        "details": "Returns the token collection symbol."
      },
      "tokenURI(uint256)": {
        "details": "Returns the Uniform Resource Identifier (URI) for `tokenId` token."
      },
      "transferFrom(address,address,uint256)": {
        "details": "Transfers `tokenId` token from `from` to `to`. WARNING: Note that the caller is responsible to confirm that the recipient is capable of receiving ERC-721 or else they may be permanently lost. Usage of {safeTransferFrom} prevents loss, though the caller must understand this adds an external call which potentially creates a reentrancy vulnerability. Requirements: - `from` cannot be the zero address. - `to` cannot be the zero address. - `tokenId` token must be owned by `from`. - If the caller is not `from`, it must be approved to move this token by either {approve} or {setApprovalForAll}. Emits a {Transfer} event."
      },
      "transferOwnership(address)": {
        "details": "Transfers ownership of the contract to a new account (`newOwner`). Can only be called by the current owner."
      }
    },
    "version": 1
  },
  "userdoc": {
    "kind": "user",
    "methods": {},
    "version": 1
  }
}