{
  "contractName": "MyContract",
  "abi": [
    {
      "inputs": [],
      "stateMutability": "nonpayable",
      "type": "constructor"
    },
    {
      "anonymous": false,
      "inputs": [
        {
          "indexed": false,
          "internalType": "uint256",
          "name": "newData",
          "type": "uint256"
        }
      ],
      "name": "DataStored",
      "type": "event"
    },
    {
      "inputs": [],
      "name": "owner",
      "outputs": [
        {
          "internalType": "address",
          "name": "",
          "type": "address"
        }
      ],
      "stateMutability": "view",
      "type": "function",
      "constant": true
    },
    {
      "inputs": [],
      "name": "storedData",
      "outputs": [
        {
          "internalType": "uint256",
          "name": "",
          "type": "uint256"
        }
      ],
      "stateMutability": "view",
      "type": "function",
      "constant": true
    },
    {
      "inputs": [
        {
          "internalType": "uint256",
          "name": "data",
          "type": "uint256"
        }
      ],
      "name": "set",
      "outputs": [],
      "stateMutability": "nonpayable",
      "type": "function"
    },
    {
      "inputs": [],
      "name": "get",
      "outputs": [
        {
          "internalType": "uint256",
          "name": "",
          "type": "uint256"
        }
      ],
      "stateMutability": "view",
      "type": "function",
      "constant": true
    }
  ],
  "bytecode": "0x608060405234801561000f575f80fd5b50335f806101000a81548173ffffffffffffffffffffffffffffffffffffffff021916908373ffffffffffffffffffffffffffffffffffffffff1602179055506103548061005c5f395ff3fe608060405234801561000f575f80fd5b506004361061004a575f3560e01c80632a1afcd91461004e57806360fe47b11461006c5780636d4ce63c146100885780638da5cb5b146100a6575b5f80fd5b6100566100c4565b60405161006391906101dc565b60405180910390f35b61008660048036038101906100819190610223565b6100ca565b005b610090610198565b60405161009d91906101dc565b60405180910390f35b6100ae6101a1565b6040516100bb919061028d565b60405180910390f35b60015481565b5f8054906101000a900473ffffffffffffffffffffffffffffffffffffffff1673ffffffffffffffffffffffffffffffffffffffff163373ffffffffffffffffffffffffffffffffffffffff1614610157576040517f08c379a000000000000000000000000000000000000000000000000000000000815260040161014e90610300565b60405180910390fd5b806001819055507f9455957c3b77d1d4ed071e2b469dd77e37fc5dfd3b4d44dc8a997cc97c7b3d498160405161018d91906101dc565b60405180910390a150565b5f600154905090565b5f8054906101000a900473ffffffffffffffffffffffffffffffffffffffff1681565b5f819050919050565b6101d6816101c4565b82525050565b5f6020820190506101ef5f8301846101cd565b92915050565b5f80fd5b610202816101c4565b811461020c575f80fd5b50565b5f8135905061021d816101f9565b92915050565b5f60208284031215610238576102376101f5565b5b5f6102458482850161020f565b91505092915050565b5f73ffffffffffffffffffffffffffffffffffffffff82169050919050565b5f6102778261024e565b9050919050565b6102878161026d565b82525050565b5f6020820190506102a05f83018461027e565b92915050565b5f82825260208201905092915050565b7f4e6f742074686520636f6e7472616374206f776e6572000000000000000000005f82015250565b5f6102ea6016836102a6565b91506102f5826102b6565b602082019050919050565b5f6020820190508181035f830152610317816102de565b905091905056fea2646970667358221220983f490434f883e1153ad576cecec7a8c7299680dc58b858bfe1ec56f113003164736f6c63430008150033",
  "immutableReferences": {},
  "source": "// SPDX-License-Identifier: MIT\npragma solidity ^0.8.21;\n\ncontract MyContract {\n    address public owner;\n    uint public storedData;\n\n    event DataStored(uint newData);\n\n    constructor() {\n        owner = msg.sender;\n    }\n\n    modifier onlyOwner() {\n        require(msg.sender == owner, \"Not the contract owner\");\n        _;\n    }\n\n    function set(uint data) public onlyOwner {\n        storedData = data;\n        emit DataStored(data);\n    }\n\n    function get() public view returns (uint) {\n        return storedData;\n    }\n}",
  "sourcePath": "/Users/augustetumaite/Desktop/Repozitorijos/blockchain-solidity/contracts/MyContract.sol",
  "compiler": {
    "name": "solc",
    "version": "0.8.21+commit.d9974bed.Emscripten.clang"
  },
  "schemaVersion": "3.4.16",
  "updatedAt": "2025-12-10T19:03:53.532Z",
  "networkType": "ethereum",
  "devdoc": {
    "kind": "dev",
    "methods": {},
    "version": 1
  },
  "userdoc": {
    "kind": "user",
    "methods": {},
    "version": 1
  }
}