{
  "contractName": "TicketMarketplace",
  "abi": [
    {
      "inputs": [],
      "stateMutability": "nonpayable",
      "type": "constructor"
    },
    {
      "anonymous": false,
      "inputs": [
        {
          "indexed": false,
          "internalType": "uint256",
          "name": "listingId",
          "type": "uint256"
        },
        {
          "indexed": false,
          "internalType": "address",
          "name": "seller",
          "type": "address"
        },
        {
          "indexed": false,
          "internalType": "uint256",
          "name": "price",
          "type": "uint256"
        }
      ],
      "name": "TicketListed",
      "type": "event"
    },
    {
      "anonymous": false,
      "inputs": [
        {
          "indexed": false,
          "internalType": "uint256",
          "name": "listingId",
          "type": "uint256"
        },
        {
          "indexed": false,
          "internalType": "address",
          "name": "buyer",
          "type": "address"
        }
      ],
      "name": "TicketSold",
      "type": "event"
    },
    {
      "inputs": [
        {
          "internalType": "address",
          "name": "",
          "type": "address"
        }
      ],
      "name": "approvedContracts",
      "outputs": [
        {
          "internalType": "bool",
          "name": "",
          "type": "bool"
        }
      ],
      "stateMutability": "view",
      "type": "function",
      "constant": true
    },
    {
      "inputs": [],
      "name": "listingCounter",
      "outputs": [
        {
          "internalType": "uint256",
          "name": "",
          "type": "uint256"
        }
      ],
      "stateMutability": "view",
      "type": "function",
      "constant": true
    },
    {
      "inputs": [
        {
          "internalType": "uint256",
          "name": "",
          "type": "uint256"
        }
      ],
      "name": "listings",
      "outputs": [
        {
          "internalType": "address",
          "name": "seller",
          "type": "address"
        },
        {
          "internalType": "address",
          "name": "ticketContract",
          "type": "address"
        },
        {
          "internalType": "uint256",
          "name": "tokenId",
          "type": "uint256"
        },
        {
          "internalType": "uint256",
          "name": "price",
          "type": "uint256"
        },
        {
          "internalType": "bool",
          "name": "active",
          "type": "bool"
        }
      ],
      "stateMutability": "view",
      "type": "function",
      "constant": true
    },
    {
      "inputs": [],
      "name": "owner",
      "outputs": [
        {
          "internalType": "address",
          "name": "",
          "type": "address"
        }
      ],
      "stateMutability": "view",
      "type": "function",
      "constant": true
    },
    {
      "inputs": [
        {
          "internalType": "address",
          "name": "_ticketContract",
          "type": "address"
        }
      ],
      "name": "approveContract",
      "outputs": [],
      "stateMutability": "nonpayable",
      "type": "function"
    },
    {
      "inputs": [
        {
          "internalType": "address",
          "name": "_ticketContract",
          "type": "address"
        },
        {
          "internalType": "uint256",
          "name": "_tokenId",
          "type": "uint256"
        },
        {
          "internalType": "uint256",
          "name": "_price",
          "type": "uint256"
        }
      ],
      "name": "listTicket",
      "outputs": [],
      "stateMutability": "nonpayable",
      "type": "function"
    },
    {
      "inputs": [
        {
          "internalType": "uint256",
          "name": "_listingId",
          "type": "uint256"
        }
      ],
      "name": "buyTicket",
      "outputs": [],
      "stateMutability": "payable",
      "type": "function",
      "payable": true
    },
    {
      "inputs": [
        {
          "internalType": "uint256",
          "name": "_listingId",
          "type": "uint256"
        }
      ],
      "name": "cancelListing",
      "outputs": [],
      "stateMutability": "nonpayable",
      "type": "function"
    }
  ],
  "bytecode": "0x608060405234801561000f575f80fd5b50335f806101000a81548173ffffffffffffffffffffffffffffffffffffffff021916908373ffffffffffffffffffffffffffffffffffffffff1602179055506110798061005c5f395ff3fe60806040526004361061007a575f3560e01c806367dd74ca1161004d57806367dd74ca146101325780636c2c9c7d1461014e5780638da5cb5b14610178578063de74e57b146101a25761007a565b806307f7aafb1461007e5780631d66b15c146100a657806326749ad7146100ce578063305a67a81461010a575b5f80fd5b348015610089575f80fd5b506100a4600480360381019061009f9190610a29565b6101e2565b005b3480156100b1575f80fd5b506100cc60048036038101906100c79190610a87565b6102c7565b005b3480156100d9575f80fd5b506100f460048036038101906100ef9190610a29565b6105b7565b6040516101019190610af1565b60405180910390f35b348015610115575f80fd5b50610130600480360381019061012b9190610b0a565b6105d4565b005b61014c60048036038101906101479190610b0a565b6106a2565b005b348015610159575f80fd5b50610162610926565b60405161016f9190610b44565b60405180910390f35b348015610183575f80fd5b5061018c61092c565b6040516101999190610b6c565b60405180910390f35b3480156101ad575f80fd5b506101c860048036038101906101c39190610b0a565b61094f565b6040516101d9959493929190610b85565b60405180910390f35b5f8054906101000a900473ffffffffffffffffffffffffffffffffffffffff1673ffffffffffffffffffffffffffffffffffffffff163373ffffffffffffffffffffffffffffffffffffffff161461026f576040517f08c379a000000000000000000000000000000000000000000000000000000000815260040161026690610c30565b60405180910390fd5b600160035f8373ffffffffffffffffffffffffffffffffffffffff1673ffffffffffffffffffffffffffffffffffffffff1681526020019081526020015f205f6101000a81548160ff02191690831515021790555050565b60035f8473ffffffffffffffffffffffffffffffffffffffff1673ffffffffffffffffffffffffffffffffffffffff1681526020019081526020015f205f9054906101000a900460ff16610350576040517f08c379a000000000000000000000000000000000000000000000000000000000815260040161034790610c98565b60405180910390fd5b3373ffffffffffffffffffffffffffffffffffffffff168373ffffffffffffffffffffffffffffffffffffffff16636352211e846040518263ffffffff1660e01b81526004016103a09190610b44565b602060405180830381865afa1580156103bb573d5f803e3d5ffd5b505050506040513d601f19601f820116820180604052508101906103df9190610cca565b73ffffffffffffffffffffffffffffffffffffffff1614610435576040517f08c379a000000000000000000000000000000000000000000000000000000000815260040161042c90610d3f565b60405180910390fd5b6040518060a001604052803373ffffffffffffffffffffffffffffffffffffffff1681526020018473ffffffffffffffffffffffffffffffffffffffff1681526020018381526020018281526020016001151581525060015f60025481526020019081526020015f205f820151815f015f6101000a81548173ffffffffffffffffffffffffffffffffffffffff021916908373ffffffffffffffffffffffffffffffffffffffff1602179055506020820151816001015f6101000a81548173ffffffffffffffffffffffffffffffffffffffff021916908373ffffffffffffffffffffffffffffffffffffffff16021790555060408201518160020155606082015181600301556080820151816004015f6101000a81548160ff0219169083151502179055509050507f22968ec3be3687b180f3544163a034b88d57b48159d9a7e9a1b610fdb2d05f80600254338360405161059393929190610d5d565b60405180910390a160025f8154809291906105ad90610dbf565b9190505550505050565b6003602052805f5260405f205f915054906101000a900460ff1681565b3373ffffffffffffffffffffffffffffffffffffffff1660015f8381526020019081526020015f205f015f9054906101000a900473ffffffffffffffffffffffffffffffffffffffff1673ffffffffffffffffffffffffffffffffffffffff1614610674576040517f08c379a000000000000000000000000000000000000000000000000000000000815260040161066b90610e50565b60405180910390fd5b5f60015f8381526020019081526020015f206004015f6101000a81548160ff02191690831515021790555050565b5f60015f8381526020019081526020015f209050806004015f9054906101000a900460ff16610706576040517f08c379a00000000000000000000000000000000000000000000000000000000081526004016106fd90610eb8565b60405180910390fd5b8060030154341461074c576040517f08c379a000000000000000000000000000000000000000000000000000000000815260040161074390610f20565b60405180910390fd5b5f816004015f6101000a81548160ff021916908315150217905550806001015f9054906101000a900473ffffffffffffffffffffffffffffffffffffffff1673ffffffffffffffffffffffffffffffffffffffff166323b872dd825f015f9054906101000a900473ffffffffffffffffffffffffffffffffffffffff163384600201546040518463ffffffff1660e01b81526004016107ed93929190610f3e565b5f604051808303815f87803b158015610804575f80fd5b505af1158015610816573d5f803e3d5ffd5b505050505f815f015f9054906101000a900473ffffffffffffffffffffffffffffffffffffffff1673ffffffffffffffffffffffffffffffffffffffff16826003015460405161086590610fa0565b5f6040518083038185875af1925050503d805f811461089f576040519150601f19603f3d011682016040523d82523d5f602084013e6108a4565b606091505b50509050806108e8576040517f08c379a00000000000000000000000000000000000000000000000000000000081526004016108df90610ffe565b60405180910390fd5b7fe39135ae9a8f1caafd7e67a9dd98cef770246b0fe0178a0e41b622db0053499d833360405161091992919061101c565b60405180910390a1505050565b60025481565b5f8054906101000a900473ffffffffffffffffffffffffffffffffffffffff1681565b6001602052805f5260405f205f91509050805f015f9054906101000a900473ffffffffffffffffffffffffffffffffffffffff1690806001015f9054906101000a900473ffffffffffffffffffffffffffffffffffffffff1690806002015490806003015490806004015f9054906101000a900460ff16905085565b5f80fd5b5f73ffffffffffffffffffffffffffffffffffffffff82169050919050565b5f6109f8826109cf565b9050919050565b610a08816109ee565b8114610a12575f80fd5b50565b5f81359050610a23816109ff565b92915050565b5f60208284031215610a3e57610a3d6109cb565b5b5f610a4b84828501610a15565b91505092915050565b5f819050919050565b610a6681610a54565b8114610a70575f80fd5b50565b5f81359050610a8181610a5d565b92915050565b5f805f60608486031215610a9e57610a9d6109cb565b5b5f610aab86828701610a15565b9350506020610abc86828701610a73565b9250506040610acd86828701610a73565b9150509250925092565b5f8115159050919050565b610aeb81610ad7565b82525050565b5f602082019050610b045f830184610ae2565b92915050565b5f60208284031215610b1f57610b1e6109cb565b5b5f610b2c84828501610a73565b91505092915050565b610b3e81610a54565b82525050565b5f602082019050610b575f830184610b35565b92915050565b610b66816109ee565b82525050565b5f602082019050610b7f5f830184610b5d565b92915050565b5f60a082019050610b985f830188610b5d565b610ba56020830187610b5d565b610bb26040830186610b35565b610bbf6060830185610b35565b610bcc6080830184610ae2565b9695505050505050565b5f82825260208201905092915050565b7f4e6f74206f776e657200000000000000000000000000000000000000000000005f82015250565b5f610c1a600983610bd6565b9150610c2582610be6565b602082019050919050565b5f6020820190508181035f830152610c4781610c0e565b9050919050565b7f436f6e7472616374206e6f7420617070726f76656400000000000000000000005f82015250565b5f610c82601583610bd6565b9150610c8d82610c4e565b602082019050919050565b5f6020820190508181035f830152610caf81610c76565b9050919050565b5f81519050610cc4816109ff565b92915050565b5f60208284031215610cdf57610cde6109cb565b5b5f610cec84828501610cb6565b91505092915050565b7f4e6f74207469636b6574206f776e6572000000000000000000000000000000005f82015250565b5f610d29601083610bd6565b9150610d3482610cf5565b602082019050919050565b5f6020820190508181035f830152610d5681610d1d565b9050919050565b5f606082019050610d705f830186610b35565b610d7d6020830185610b5d565b610d8a6040830184610b35565b949350505050565b7f4e487b71000000000000000000000000000000000000000000000000000000005f52601160045260245ffd5b5f610dc982610a54565b91507fffffffffffffffffffffffffffffffffffffffffffffffffffffffffffffffff8203610dfb57610dfa610d92565b5b600182019050919050565b7f4e6f7420796f7572206c697374696e67000000000000000000000000000000005f82015250565b5f610e3a601083610bd6565b9150610e4582610e06565b602082019050919050565b5f6020820190508181035f830152610e6781610e2e565b9050919050565b7f4e6f7420616374697665000000000000000000000000000000000000000000005f82015250565b5f610ea2600a83610bd6565b9150610ead82610e6e565b602082019050919050565b5f6020820190508181035f830152610ecf81610e96565b9050919050565b7f57726f6e672070726963650000000000000000000000000000000000000000005f82015250565b5f610f0a600b83610bd6565b9150610f1582610ed6565b602082019050919050565b5f6020820190508181035f830152610f3781610efe565b9050919050565b5f606082019050610f515f830186610b5d565b610f5e6020830185610b5d565b610f6b6040830184610b35565b949350505050565b5f81905092915050565b50565b5f610f8b5f83610f73565b9150610f9682610f7d565b5f82019050919050565b5f610faa82610f80565b9150819050919050565b7f5061796d656e74206661696c65640000000000000000000000000000000000005f82015250565b5f610fe8600e83610bd6565b9150610ff382610fb4565b602082019050919050565b5f6020820190508181035f83015261101581610fdc565b9050919050565b5f60408201905061102f5f830185610b35565b61103c6020830184610b5d565b939250505056fea2646970667358221220a8a53d4a2155ee49735f53ca51c9291c0cad615961915dd319dcb3d9ea90206a64736f6c63430008150033",
  "immutableReferences": {},
  "source": "// SPDX-License-Identifier: MIT\r\npragma solidity ^0.8.21;\r\n\r\nimport \"@openzeppelin/contracts/token/ERC721/IERC721.sol\";\r\n\r\ncontract TicketMarketplace {\r\n    address public owner;\r\n\r\n    struct Listing {\r\n        address seller;\r\n        address ticketContract; //Pardavjo kontraktas (Bilietai.lt, )\r\n        uint256 tokenId;\r\n        uint256 price;\r\n        bool active;\r\n    }\r\n\r\n    mapping(uint256 => Listing) public listings;\r\n    uint256 public listingCounter;\r\n\r\n    mapping(address => bool) public approvedContracts;\r\n\r\n    event TicketListed(uint256 listingId, address seller, uint256 price);\r\n    event TicketSold(uint256 listingId, address buyer);\r\n\r\n    constructor() {\r\n        owner = msg.sender;\r\n    }\r\n\r\n    modifier onlyOwner() {\r\n        require(msg.sender == owner, \"Not owner\");\r\n        _;\r\n    }\r\n\r\n    function approveContract(address _ticketContract) external onlyOwner {\r\n        approvedContracts[_ticketContract] = true;\r\n    }\r\n\r\n    function listTicket(address _ticketContract, uint256 _tokenId, uint256 _price) external {\r\n        require(approvedContracts[_ticketContract], \"Contract not approved\");\r\n        require(IERC721(_ticketContract).ownerOf(_tokenId) == msg.sender, \"Not ticket owner\");\r\n\r\n        listings[listingCounter] = Listing({\r\n            seller: msg.sender,\r\n            ticketContract: _ticketContract,\r\n            tokenId: _tokenId,\r\n            price: _price,\r\n            active: true\r\n        });\r\n\r\n        emit TicketListed(listingCounter, msg.sender, _price);\r\n        listingCounter++;\r\n    }\r\n\r\n    function buyTicket(uint256 _listingId) external payable {\r\n        Listing storage listing = listings[_listingId];\r\n\r\n        require(listing.active, \"Not active\");\r\n        require(msg.value == listing.price, \"Wrong price\");\r\n\r\n        listing.active = false;\r\n\r\n        IERC721(listing.ticketContract).transferFrom(listing.seller, msg.sender, listing.tokenId);\r\n\r\n        (bool success, ) = payable(listing.seller).call{value: listing.price}(\"\");\r\n        require(success, \"Payment failed\");\r\n\r\n        emit TicketSold(_listingId, msg.sender);\r\n    }\r\n\r\n    function cancelListing(uint256 _listingId) external {\r\n        require(listings[_listingId].seller == msg.sender, \"Not your listing\");\r\n        listings[_listingId].active = false;\r\n    }\r\n}",
  "sourcePath": "C:\\Users\\astri\\Desktop\\blockchain-solidity\\contracts\\TicketMarketplace.sol",
  "compiler": {
    "name": "solc",
    "version": "0.8.21+commit.d9974bed.Emscripten.clang"
  },
  "schemaVersion": "3.4.16",
  "updatedAt": "2025-12-17T19:10:10.978Z",
  "networkType": "ethereum",
  "devdoc": {
    "kind": "dev",
    "methods": {},
    "version": 1
  },
  "userdoc": {
    "kind": "user",
    "methods": {},
    "version": 1
  }
}